{
  "_format": "hh-sol-artifact-1",
  "contractName": "Vault",
  "sourceName": "contracts/implementations/Vault.sol",
  "abi": [
    {
      "inputs": [
        {
          "internalType": "address",
          "name": "coinContract",
          "type": "address"
        }
      ],
      "stateMutability": "nonpayable",
      "type": "constructor"
    },
    {
      "anonymous": false,
      "inputs": [
        {
          "indexed": false,
          "internalType": "uint256",
          "name": "collateralDeposited",
          "type": "uint256"
        },
        {
          "indexed": false,
          "internalType": "uint256",
          "name": "amountMinted",
          "type": "uint256"
        }
      ],
      "name": "Deposit",
      "type": "event"
    },
    {
      "anonymous": false,
      "inputs": [
        {
          "indexed": false,
          "internalType": "uint256",
          "name": "collateralWithdrawn",
          "type": "uint256"
        },
        {
          "indexed": false,
          "internalType": "uint256",
          "name": "amountBurned",
          "type": "uint256"
        }
      ],
      "name": "Withdraw",
      "type": "event"
    },
    {
      "inputs": [],
      "name": "ETHPrice",
      "outputs": [
        {
          "internalType": "uint256",
          "name": "",
          "type": "uint256"
        }
      ],
      "stateMutability": "view",
      "type": "function"
    },
    {
      "inputs": [
        {
          "internalType": "uint256",
          "name": "amountToDeposit",
          "type": "uint256"
        }
      ],
      "name": "deposit",
      "outputs": [],
      "stateMutability": "nonpayable",
      "type": "function"
    },
    {
      "inputs": [
        {
          "internalType": "uint256",
          "name": "repaymentAmount",
          "type": "uint256"
        }
      ],
      "name": "estimateCollateralAmount",
      "outputs": [
        {
          "internalType": "uint256",
          "name": "collateralAmount",
          "type": "uint256"
        }
      ],
      "stateMutability": "view",
      "type": "function"
    },
    {
      "inputs": [
        {
          "internalType": "uint256",
          "name": "depositAmount",
          "type": "uint256"
        }
      ],
      "name": "estimateTokenAmount",
      "outputs": [
        {
          "internalType": "uint256",
          "name": "tokenAmount",
          "type": "uint256"
        }
      ],
      "stateMutability": "view",
      "type": "function"
    },
    {
      "inputs": [
        {
          "internalType": "address",
          "name": "userAddress",
          "type": "address"
        }
      ],
      "name": "getVault",
      "outputs": [
        {
          "components": [
            {
              "internalType": "uint256",
              "name": "collateralAmount",
              "type": "uint256"
            },
            {
              "internalType": "uint256",
              "name": "debtAmount",
              "type": "uint256"
            }
          ],
          "internalType": "struct IVault.Vault",
          "name": "vault",
          "type": "tuple"
        }
      ],
      "stateMutability": "view",
      "type": "function"
    },
    {
      "inputs": [
        {
          "internalType": "uint256",
          "name": "repaymentAmount",
          "type": "uint256"
        }
      ],
      "name": "withdraw",
      "outputs": [],
      "stateMutability": "nonpayable",
      "type": "function"
    }
  ],
  "bytecode": "0x6080604052610fa06002553480156200001757600080fd5b5060405162000c3138038062000c3183398181016040528101906200003d9190620001b6565b620000896040518060400160405280601381526020017f436f6e747261637420616464726573732025730000000000000000000000000081525082620000d060201b620004461760201c565b806000806101000a81548173ffffffffffffffffffffffffffffffffffffffff021916908373ffffffffffffffffffffffffffffffffffffffff1602179055505062000319565b620001728282604051602401620000e992919062000234565b6040516020818303038152906040527f319af333000000000000000000000000000000000000000000000000000000007bffffffffffffffffffffffffffffffffffffffffffffffffffffffff19166020820180517bffffffffffffffffffffffffffffffffffffffffffffffffffffffff83818316178352505050506200017660201b60201c565b5050565b60008151905060006a636f6e736f6c652e6c6f679050602083016000808483855afa5050505050565b600081519050620001b081620002ff565b92915050565b600060208284031215620001c957600080fd5b6000620001d9848285016200019f565b91505092915050565b620001ed8162000284565b82525050565b6000620002008262000268565b6200020c818562000273565b93506200021e818560208601620002b8565b6200022981620002ee565b840191505092915050565b60006040820190508181036000830152620002508185620001f3565b9050620002616020830184620001e2565b9392505050565b600081519050919050565b600082825260208201905092915050565b6000620002918262000298565b9050919050565b600073ffffffffffffffffffffffffffffffffffffffff82169050919050565b60005b83811015620002d8578082015181840152602081019050620002bb565b83811115620002e8576000848401525b50505050565b6000601f19601f8301169050919050565b6200030a8162000284565b81146200031657600080fd5b50565b61090880620003296000396000f3fe608060405234801561001057600080fd5b50600436106100625760003560e01c80630eb9af38146100675780631b05ab79146100975780632e1a7d4d146100c75780633732e153146100e357806356bfdaf514610101578063b6b55f2514610131575b600080fd5b610081600480360381019061007c9190610564565b61014d565b60405161008e91906106cd565b60405180910390f35b6100b160048036038101906100ac91906105b6565b61015a565b6040516100be91906106e8565b60405180910390f35b6100e160048036038101906100dc91906105b6565b610161565b005b6100eb6102b9565b6040516100f891906106e8565b60405180910390f35b61011b600480360381019061011691906105b6565b6102bf565b60405161012891906106e8565b60405180910390f35b61014b600480360381019061014691906105b6565b6102c6565b005b61015561050b565b919050565b6000919050565b600081141561016f57600080fd5b6000600160003373ffffffffffffffffffffffffffffffffffffffff1673ffffffffffffffffffffffffffffffffffffffff168152602001908152602001600020905080600101548211156101c357600080fd5b600082905060008054906101000a900473ffffffffffffffffffffffffffffffffffffffff1673ffffffffffffffffffffffffffffffffffffffff16639dc29fac33836040518363ffffffff1660e01b8152600401610223929190610674565b602060405180830381600087803b15801561023d57600080fd5b505af1158015610251573d6000803e3d6000fd5b505050506040513d601f19601f82011682018060405250810190610275919061058d565b61027e57600080fd5b80826000016000828254610292919061079e565b92505081905550828260010160008282546102ad919061079e565b92505081905550505050565b60025481565b6000919050565b60008114156102d457600080fd5b6000600160003373ffffffffffffffffffffffffffffffffffffffff1673ffffffffffffffffffffffffffffffffffffffff1681526020019081526020016000209050600082905060008054906101000a900473ffffffffffffffffffffffffffffffffffffffff1673ffffffffffffffffffffffffffffffffffffffff166340c10f1933836040518363ffffffff1660e01b8152600401610377929190610674565b602060405180830381600087803b15801561039157600080fd5b505af11580156103a5573d6000803e3d6000fd5b505050506040513d601f19601f820116820180604052508101906103c9919061058d565b6103d257600080fd5b828260000160008282546103e69190610748565b92505081905550808260010160008282546104019190610748565b925050819055507fa3af609bf46297028ce551832669030f9effef2b02606d02cbbcc40fe6b47c558382604051610439929190610703565b60405180910390a1505050565b6104de828260405160240161045c92919061069d565b6040516020818303038152906040527f319af333000000000000000000000000000000000000000000000000000000007bffffffffffffffffffffffffffffffffffffffffffffffffffffffff19166020820180517bffffffffffffffffffffffffffffffffffffffffffffffffffffffff83818316178352505050506104e2565b5050565b60008151905060006a636f6e736f6c652e6c6f679050602083016000808483855afa5050505050565b604051806040016040528060008152602001600081525090565b6000813590506105348161088d565b92915050565b600081519050610549816108a4565b92915050565b60008135905061055e816108bb565b92915050565b60006020828403121561057657600080fd5b600061058484828501610525565b91505092915050565b60006020828403121561059f57600080fd5b60006105ad8482850161053a565b91505092915050565b6000602082840312156105c857600080fd5b60006105d68482850161054f565b91505092915050565b6105e8816107d2565b82525050565b60006105f98261072c565b6106038185610737565b935061061381856020860161081a565b61061c8161087c565b840191505092915050565b60408201600082015161063d6000850182610656565b5060208201516106506020850182610656565b50505050565b61065f81610810565b82525050565b61066e81610810565b82525050565b600060408201905061068960008301856105df565b6106966020830184610665565b9392505050565b600060408201905081810360008301526106b781856105ee565b90506106c660208301846105df565b9392505050565b60006040820190506106e26000830184610627565b92915050565b60006020820190506106fd6000830184610665565b92915050565b60006040820190506107186000830185610665565b6107256020830184610665565b9392505050565b600081519050919050565b600082825260208201905092915050565b600061075382610810565b915061075e83610810565b9250827fffffffffffffffffffffffffffffffffffffffffffffffffffffffffffffffff038211156107935761079261084d565b5b828201905092915050565b60006107a982610810565b91506107b483610810565b9250828210156107c7576107c661084d565b5b828203905092915050565b60006107dd826107f0565b9050919050565b60008115159050919050565b600073ffffffffffffffffffffffffffffffffffffffff82169050919050565b6000819050919050565b60005b8381101561083857808201518184015260208101905061081d565b83811115610847576000848401525b50505050565b7f4e487b7100000000000000000000000000000000000000000000000000000000600052601160045260246000fd5b6000601f19601f8301169050919050565b610896816107d2565b81146108a157600080fd5b50565b6108ad816107e4565b81146108b857600080fd5b50565b6108c481610810565b81146108cf57600080fd5b5056fea2646970667358221220af752bf31635a7c02bfb7f84d982992ae2e4e73df59158238157af6b758989b464736f6c63430008000033",
  "linkReferences": {},
  "deployedLinkReferences": {}
}